:020000040000FA
:060000006BEF03F012009B
:060008005CEF03F01200A2
:06002A00010002070000C6
:080030008A000000010000003D
:08003800019E08D0019E09AEF3
:1000400005D0086C091EE86A0922018E09C003F078
:1000500008C002F0136A126A8E0E046E056A0FEF72
:1000600001F0016A4BEC01F063EC01F001B6F3EF33
:1000700000F001A205D001B8F3EF00F0FAEF00F0B4
:1000800001AA05D001B0F3EF00F0FAEF00F001B0E3
:1000900002D001A802D006EF01F0056A0F500A2431
:1000A000046EE86A05227E0E045EE86A055A126A4A
:1000B000136A026A036A0E500902F4CF03F0F3CF09
:1000C00002F00D500902F3501326F4500222000EE4
:1000D00003220E500802F3501326F4500222000EA1
:1000E00003220C500902F3501226F4501322000E82
:1000F000022203220D500802F3501226F45013225C
:10010000000E022203220E500702F3501226F45072
:100110001322000E022203220C500802F450122671
:10012000000E1322022203220D500702F450122661
:10013000000E1322022203220FEF01F0006A0EAE1E
:10014000A7EF00F00D6C0E1EE86A0E22001E09AE2D
:10015000AFEF00F0086C091EE86A0922001E36ECB9
:1001600003F009BEBFEF00F000AE000C086C091EE2
:10017000E86A0922046C051EE86A0522000C00BE2C
:10018000B6EF00F00188FF0C016A4BEC01F001B6FC
:10019000CEEF00F001A20ED001B405D07F0E096EA3
:1001A000FF0E086E1FD0800E096E086A1BD0096A08
:1001B000086A18D001B0FBD78F0E0A60EDD77E0E0B
:1001C0000A64F5D78E0E0A5C05E0D8900932083231
:1001D0000A2AF8D701A406D0086C091EE86A092289
:1001E00009AEE5D712007F0E0A6EFF0E096E086E8B
:1001F000076E12007F0E01BEFF0E0A6E02D07F0E48
:100200000A6E800E096E086A076AF3D701AE04D041
:10021000800E0A6E096AF7D70A6A096AF4D7035092
:10022000021013101210F8E005BEF0D703BE0CD078
:1002300004500510EBE0D890123613360236033620
:100240000406D8A00506F2D70550D4E10428D2E070
:1002500012AE11D07F0E121402E113A00CD0132A9B
:10026000E86A0222032207E3D88003320232133203
:10027000042A0428BFE00450C9E013C007F002C0FC
:1002800008F00334096E04300A6E09320A9E01BE7A
:100290000A8EF9EF00F009360A3602E30184017E86
:1002A00006E101800A6A096A086A076A12000A28D8
:1002B00003E0D88009321200D890093202E10182AD
:1002C0001200018612000E360F3602E3018C017E09
:1002D00006E101880F6A0E6A0D6A0C6A12000F2887
:1002E00003E0D8800E321200D8900E32EAE1018A83
:0202F0001200FA
:0E02F2008C841200D9CFE6FFE1CFD9FF040EB5
:10030000E126DE6ADD6A020EDB6A030EDB6A0A0E94
:10031000146E156AFD0EDBCF08F0FE0EDBCF09F080
:1003200014C00DF015C00EF09EEC00F008C0DEFF0A
:1003300009C0DDFFFD0EDBCF14F0FE0EDBCF15F0A4
:100340000A0E0D6E0E6A14C008F015C009F09EEC7E
:1003500000F004C014F005C015F0020E14C0DBFF5D
:10036000030E15C0DBFFDFCFE6FF22D8E5528B6E10
:100370008C86010EE66E4CEC03F0E5528C96020E74
:10038000DBCFE6FF15D8E5528B6E8C88010EE66E4A
:100390004CEC03F0E5528C98146E040EE15C02E222
:1003A000E16AE552E16E1450E552E7CFD9FF120041
:1003B000D9CFE6FFE1CFD9FF0B0EE126DE523F0E8B
:1003C000DD6E060EF36E020EF3CFDBFF5B0EF36EF7
:1003D000030EF3CFDBFF4F0EF36E040EF3CFDBFF04
:1003E000660EF36E050EF3CFDBFF6D0EF36E060E99
:1003F000F3CFDBFF7D0EF36E070EF3CFDBFFF36E63
:10040000080EF3CFDBFF7F0EF36E090EF3CFDBFF99
:100410006F0EF36E0A0EF3CFDBFFD950010F146E8F
:10042000DACF15F0FE0EDB500F011424E96E000E3A
:100430001520EA6EEFCFDFFFDF1CDF6EDF50146E9A
:100440000B0EE15C03E200D0E16AE552E16E14506C
:08045000E552E7CFD9FF1200CD
:08045800D9CFE6FFE1CFD9FF87
:10046000080EE126DE6ADD6A020EDB6A030EDB6A35
:10047000040EDB6A050EDB6A060EDB6A070EDB6A1A
:1004800012EC03F01CEC03F02FEC03F033EC03F060
:1004900079EC01F0C28200018A516AE08A6BC45093
:1004A000166E16C017F0166AC35000011610146EAF
:1004B00017C015F014C0DEFF15C0DDFF000EDFCF42
:1004C00008F0010EDBCF09F01EEC00F007C014F0BD
:1004D00008C015F009C016F00AC017F00C6A0D6AC2
:1004E000A00E0E6E3B0E0F6E14C007F015C008F084
:1004F00016C009F017C00AF031EC00F0020E07C078
:10050000DBFF030E08C0DBFF040E09C0DBFF050E96
:100510000AC0DBFF020EDBCF14F0030EDBCF15F0B9
:10052000040EDBCF16F0050EDBCF17F00C6A0D6A58
:10053000200E0E6E410E0F6E14C007F015C008F0AD
:1005400016C009F017C00AF031EC00F0C4EC00F05E
:10055000060E08C0DBFF070E09C0DBFF060EDBCF6F
:10056000E6FF070EDBCFE6FF7BEC01F0E552E5523C
:1005700091D7080EE15C02E2E16AE552E16EE552D4
:06058000E7CFD9FF1200D5
:0A0586002A0EF66E000EF76E000E4E
:10059000F86E00010900F550856F0900F550866F6F
:1005A00003E1856701D03DD00900F550806F090057
:1005B000F550816F0900F550826F09000900F55070
:1005C000E96E0900F550EA6E090009000900F550CE
:1005D000836F0900F550846F09000900F6CF87F09A
:1005E000F7CF88F0F8CF89F080C0F6FF81C0F7FF21
:1005F00082C0F8FF0001835302E1845307E0090041
:10060000F550EE6E8307F8E28407F9D787C0F6FF4E
:1006100088C0F7FF89C0F8FF00018507000E865BE0
:04062000BFD712002E
:0C062400946A8B6A928095968C9695984B
:100630008C9895948C941200C19AC198C186C184FB
:10064000C182C190C29AC298C296C294C08EC09410
:10065000C092C080C08AC098C096C28012009D8C93
:0C0660009F8C9E9C1200F28CF28E120007
:04066C00056A046AAD
:10067000100EE76ED89008360936043605360D5050
:10068000045C0E50055805E30D50045E0E50055AEB
:08069000082AE72EF0D7120042
:08069800FF0EE350186E480E3E
:1006A00001D04C0EE76EE72EFED7E76AE72EFED7A5
:0806B000182EF7D7000012001C
:0806B800DACFE4FFE2CFDAFF24
:1006C000E6529EAC04D09E9C0001010E8A6FE5525A
:0606D000E5CFDAFF110086
:0A06D60015EE00F025EE00F0F86AC2
:1006E000019CC3EC02F080EC03F02CEC02F0FBD791
:0206F0001200F6
:0E06F20000EE00F00F0EEE6AEA62FDD7120075
:020700001200E5
:0107020000F6
:020000040030CA
:0100010002FC
:010003001EDE
:010006008178
:00000001FF
